:020000040800F2
:1000000068060020CD010008D5010008D7010008CE
:10001000D9010008DB010008DD0100080000000034
:10002000000000000000000000000000DF010008E8
:10003000E101000800000000E3010008E5010008FC
:10004000E7010008E7010008E7010008E7010008F0
:10005000E7010008E7010008E7010008E7010008E0
:10006000E7010008E7010008E7010008E7010008D0
:10007000E7010008E7010008E7010008E7010008C0
:10008000E7010008E7010008E701000800000000A0
:10009000000000000000000000000000E701000870
:1000A000E7010008E7010008E7010008E701000890
:1000B000E7010008E7010008E7010008E701000880
:1000C000E7010008E7010008E7010008E701000870
:1000D000E7010008E7010008E7010008E701000860
:1000E000E7010008E7010008E70100080000000040
:1000F0000000000000000000000000000000000000
:1001000000000000000000000000000000000000EF
:100110000000000000000000E7010008E7010008FF
:1001200000F002F800F042F814A696E8000CB24481
:10013000B344DA4501D100F039F8BAE80F000FA650
:1001400096E83000A5EB040504EB0607AAEB0704CC
:10015000A7F101074FEA15154FEA3414A4F1010481
:10016000AC4201D300F022F813F0010F18BFFB1AC4
:1001700043F0010300F001F8DBE7184754090000E1
:1001800064090000704700000023002400250026B9
:10019000103A28BF78C1FBD8520728BF30C148BFEA
:1001A0000B6070471FB51FBD10B510BD00F031F8D2
:1001B0001146FFF7F7FF00F033FA00F04FF803B4F1
:1001C000FFF7F2FF03BC00F057F800000948804732
:1001D00009480047FEE7FEE7FEE7FEE7FEE7FEE729
:1001E000FEE7FEE7FEE7FEE704480549054A064B41
:1001F00070470000AD0500082101000868000020DC
:1002000068060020680200206802002070477047DE
:100210007047754600F02CF8AE4605006946534617
:1002200020F00700854618B020B5FFF7DDFFBDE8D8
:1002300020404FF000064FF000074FF000084FF04D
:10024000000BAC46ACE8C009ACE8C009ACE8C0099A
:10025000ACE8C00921F007018D46704710B504468F
:10026000AFF300802046BDE81040FFF7A8BF0000B4
:10027000004870470000002001491820ABBEFEE78F
:10028000260002007047000088B007900691002009
:100290000590049003900290019000900698C07819
:1002A00000F00F0005900698C078C006002806D51B
:1002B000FFE706988178059808430590FFE70698C0
:1002C000007800284BD0FFE70798006801900020D5
:1002D0000390FFE7039807283DD8FFE70399012023
:1002E000884002900698008802990840049004987B
:1002F000029988422AD1FFE7039880000290029970
:100300000F2088400090009901988843019005983B
:10031000029900FA01F10198084301900698C0780B
:10032000282806D1FFE703990120884007994861F2
:100330000BE00698C078482806D1FFE70399012012
:10034000884007990861FFE7FFE7FFE7FFE70398A9
:1003500001300390BEE7019807990860FFE706980F
:100360000088B0F5807F50DBFFE707984068019078
:1003700000200390FFE70398072842D8FFE703987F
:1003800000F1080101208840029006980088029937
:10039000084004900498029988422DD1FFE7039801
:1003A0008000029002990F208840009000990198E7
:1003B000884301900598029900FA01F101980843D9
:1003C00001900698C078282808D1FFE7039800F12B
:1003D00008010120884007994861FFE70698C07826
:1003E000482808D1FFE7039800F108010120884060
:1003F00007990861FFE7FFE7FFE7039801300390E3
:10040000B9E7019807994860FFE708B07047000016
:1004100082B00190ADF8021000208DF80100019823
:100420008068BDF80210084204D0FFE701208DF873
:10043000010003E000208DF80100FFE79DF80100B6
:1004400002B0704782B00190ADF80210BDF8020012
:100450000199486102B0704782B00190ADF8021076
:10046000BDF802000199086102B0704782B00190A6
:100470008DF803109DF8030048B1FFE7019A41F29F
:100480001801C4F2020108681043086008E0019AEC
:1004900041F21801C4F20201086890430860FFE7C6
:1004A00002B0704780B500F001F880BD84B0002034
:1004B0000390029041F20001C4F20201086840F486
:1004C00080300860FFE741F20000C4F202000068DB
:1004D00000F400300290039801300390FFE7029986
:1004E0000020019039B9FFE70398B0F5A06018BF6C
:1004F00001200190FFE70198C0070028E3D1FFE742
:1005000041F20000C4F2020000688003002803D515
:10051000FFE70120029002E000200290FFE702982E
:1005200001283FD1FFE741F20401C4F2020100912A
:10053000086808600868086008680860086820F4AF
:100540007C100860086840F49810086041F20001CF
:10055000C4F20201086840F080700860FFE741F2D1
:100560000000C4F2020000688001002801D4FFE707
:10057000F5E741F20401C4F20201086820F003002B
:100580000860086840F002000860FFE741F20400DC
:10059000C4F20200006800F00C00082801D0FFE758
:1005A000F4E700E0FFE704B07047000080B541F2D7
:1005B0000002C4F20202106840F00100106041F233
:1005C0000401C4F2020108680023CFF6FF031840BB
:1005D000086010684FF6FF73CFF6F663184010609E
:1005E000106820F480201060086820F4FE00086085
:1005F00041F20801C4F202014FF41F00086041F209
:100600002C01C4F2020100200860FFF74BFF4EF6F8
:100610000851CEF200014FF00060086080BD00007C
:1006200080B596B000200890159004200121079114
:10063000FFF71CFF07990820FFF718FF0799102004
:100640000490FFF713FF40F26001C2F2000106912F
:100650002120088002200390887048200290C870F2
:1006600040F60000C4F20100FFF70EFE0298039A64
:1006700006994FF440730B808A70C87040F60040B2
:10068000C4F20100FFF700FE0298039A06994FF4A6
:1006900080530B808A70C87041F20000C4F20100E0
:1006A0000590FFF7F1FD039B049A059806994FF01A
:1006B0003F0CA1F800C08B70CA70FFF7E5FD0799E9
:1006C00008988DF8530013908DF84B00119041F667
:1006D0008022C0F2060210920F9047F230520E9222
:1006E0000D900C900B908DF82B100990FFE7099856
:1006F000012804DBFFE7099801380990FFE740F67D
:100700000040C4F201004FF48071FFF781FEB0B9E0
:10071000FFE70998002812DCFFE79DF8531001203D
:1007200020EA01018DF8531000210F9111918DF8ED
:100730002B0048F2A060C0F201000990FFE740F6EC
:100740000040C4F201004FF40071FFF761FED8B918
:10075000FFE70998002817DCFFE701208DF84B0020
:10076000002011900F9013980130139013980A28CD
:1007700003DBFFE700201390FFE74CF250300990B5
:1007800001208DF82B00FFE741F20000C4F20100C8
:100790004FF48051FFF73CFE60B9FFE7099800284D
:1007A00008DCFFE70120119000200F904CF2503040
:1007B0000990FFE71198D8B1FFE710980138109021
:1007C0001098002813DCFFE741F68020C0F20600F5
:1007D000109013980130139013980A2803DBFFE759
:1007E00001201390FFE701208DF82B00FFE7FFE7C2
:1007F00040F60000C4F201002021FFF709FE60B9B5
:10080000FFE70998002808DCFFE701200F9000208F
:1008100011904CF250300990FFE70F98C8B1FFE7F4
:100820000E9801380E900E98002811DCFFE74FF467
:10083000FA500E9013980130139013980A2803DB96
:10084000FFE701201390FFE701208DF82B00FFE761
:10085000FFE79DF82B00C007002800F08D80FFE720
:1008600013980190092846D80199DFE801F0050A9C
:1008700010161D232A31373E01200D900C900B904D
:1008800039E000200D900C9001200B9033E0002007
:100890000D9001200C900B902DE000200D90012078
:1008A0000C9002200B9026E000200D9001210C916D
:1008B0000B9020E001200D9002200C9000200B9066
:1008C00019E001200D9003200C9000200B9012E005
:1008D00001200D9000200C900B900CE001200D9059
:1008E00000200C9002200B9005E001200D900021CB
:1008F0000C910B90FFE79DF85300C00750B9FFE73C
:10090000722000F03BF8672000F038F8622000F019
:1009100035F82DE00D9828B1FFE70D99722000F011
:100920005BF8FFE70C9828B1FFE70C99672000F00F
:1009300053F8FFE70B9828B1FFE70B99622000F00E
:100940004BF8FFE70D9820B9FFE7722000F016F88A
:10095000FFE70C9820B9FFE7672000F00FF8FFE7EA
:100960000B9820B9FFE7622000F008F8FFE7FFE7E7
:1009700000208DF82B00FFE7B9E6000080B582B0BB
:100980008DF807009DF80700722808D1FFE741F2B3
:100990000000C4F201000821FFF754FDFFE79DF8B5
:1009A0000700672808D1FFE741F20000C4F2010008
:1009B0000721FFF747FDFFE79DF80700622808D1F0
:1009C000FFE741F20000C4F201003021FFF73AFDD9
:1009D00000E0FFE702B080BD80B588B08DF81F0051
:1009E00006919DF81F00722808D1FFE741F2000030
:1009F000C4F201000821FFF72FFD66E09DF81F00FB
:100A0000672836D1FFE7069801280DD1FFE741F2AC
:100A10000000C4F2010005900121FFF71DFD0598BB
:100A20000621FFF70FFD23E0069802280DD1FFE70E
:100A300041F20000C4F2010004900221FFF70CFD16
:100A400004980521FFF7FEFC11E0069803280DD15C
:100A5000FFE741F20000C4F2010003900421FFF718
:100A6000FBFC03980321FFF7EDFCFFE7FFE7FFE73F
:100A70002AE09DF81F00622824D1FFE7069801288C
:100A80000DD1FFE741F20000C4F2010002902021E5
:100A9000FFF7E2FC02981021FFF7D4FC11E0069862
:100AA00002280DD1FFE741F20000C4F201000190DD
:100AB0001021FFF7D1FC01982021FFF7C3FCFFE7CD
:100AC000FFE700E001E0FFE7FFE708B080BD0000BE
:100AD000E00A000800000020680600008801000805
:04000005080001CD21
:00000001FF
